{
  "_format": "hh-sol-artifact-1",
  "contractName": "TicketNFT",
  "sourceName": "contracts/TicketNFT.sol",
  "abi": [
    {
      "inputs": [],
      "stateMutability": "nonpayable",
      "type": "constructor"
    },
    {
      "anonymous": false,
      "inputs": [
        {
          "indexed": true,
          "internalType": "address",
          "name": "owner",
          "type": "address"
        },
        {
          "indexed": true,
          "internalType": "address",
          "name": "approved",
          "type": "address"
        },
        {
          "indexed": true,
          "internalType": "uint256",
          "name": "tokenId",
          "type": "uint256"
        }
      ],
      "name": "Approval",
      "type": "event"
    },
    {
      "anonymous": false,
      "inputs": [
        {
          "indexed": true,
          "internalType": "address",
          "name": "owner",
          "type": "address"
        },
        {
          "indexed": true,
          "internalType": "address",
          "name": "operator",
          "type": "address"
        },
        {
          "indexed": false,
          "internalType": "bool",
          "name": "approved",
          "type": "bool"
        }
      ],
      "name": "ApprovalForAll",
      "type": "event"
    },
    {
      "anonymous": false,
      "inputs": [
        {
          "indexed": true,
          "internalType": "uint256",
          "name": "eventId",
          "type": "uint256"
        },
        {
          "indexed": false,
          "internalType": "string",
          "name": "name",
          "type": "string"
        },
        {
          "indexed": false,
          "internalType": "string",
          "name": "date",
          "type": "string"
        },
        {
          "indexed": false,
          "internalType": "string",
          "name": "location",
          "type": "string"
        },
        {
          "indexed": false,
          "internalType": "uint256",
          "name": "ticketPrice",
          "type": "uint256"
        },
        {
          "indexed": false,
          "internalType": "uint256",
          "name": "ticketsAvailable",
          "type": "uint256"
        },
        {
          "indexed": true,
          "internalType": "address",
          "name": "creator",
          "type": "address"
        }
      ],
      "name": "EventCreated",
      "type": "event"
    },
    {
      "anonymous": false,
      "inputs": [
        {
          "indexed": true,
          "internalType": "uint256",
          "name": "ticketId",
          "type": "uint256"
        },
        {
          "indexed": false,
          "internalType": "uint256",
          "name": "eventId",
          "type": "uint256"
        },
        {
          "indexed": true,
          "internalType": "address",
          "name": "buyer",
          "type": "address"
        }
      ],
      "name": "TicketPurchased",
      "type": "event"
    },
    {
      "anonymous": false,
      "inputs": [
        {
          "indexed": true,
          "internalType": "address",
          "name": "from",
          "type": "address"
        },
        {
          "indexed": true,
          "internalType": "address",
          "name": "to",
          "type": "address"
        },
        {
          "indexed": true,
          "internalType": "uint256",
          "name": "tokenId",
          "type": "uint256"
        }
      ],
      "name": "Transfer",
      "type": "event"
    },
    {
      "inputs": [
        {
          "internalType": "address",
          "name": "to",
          "type": "address"
        },
        {
          "internalType": "uint256",
          "name": "tokenId",
          "type": "uint256"
        }
      ],
      "name": "approve",
      "outputs": [],
      "stateMutability": "nonpayable",
      "type": "function"
    },
    {
      "inputs": [
        {
          "internalType": "address",
          "name": "owner",
          "type": "address"
        }
      ],
      "name": "balanceOf",
      "outputs": [
        {
          "internalType": "uint256",
          "name": "",
          "type": "uint256"
        }
      ],
      "stateMutability": "view",
      "type": "function"
    },
    {
      "inputs": [
        {
          "internalType": "string",
          "name": "name",
          "type": "string"
        },
        {
          "internalType": "string",
          "name": "date",
          "type": "string"
        },
        {
          "internalType": "string",
          "name": "location",
          "type": "string"
        },
        {
          "internalType": "uint256",
          "name": "ticketPrice",
          "type": "uint256"
        },
        {
          "internalType": "uint256",
          "name": "ticketsAvailable",
          "type": "uint256"
        }
      ],
      "name": "createEvent",
      "outputs": [],
      "stateMutability": "nonpayable",
      "type": "function"
    },
    {
      "inputs": [
        {
          "internalType": "uint256",
          "name": "",
          "type": "uint256"
        }
      ],
      "name": "events",
      "outputs": [
        {
          "internalType": "uint256",
          "name": "id",
          "type": "uint256"
        },
        {
          "internalType": "string",
          "name": "name",
          "type": "string"
        },
        {
          "internalType": "string",
          "name": "date",
          "type": "string"
        },
        {
          "internalType": "string",
          "name": "location",
          "type": "string"
        },
        {
          "internalType": "uint256",
          "name": "ticketPrice",
          "type": "uint256"
        },
        {
          "internalType": "uint256",
          "name": "ticketsAvailable",
          "type": "uint256"
        },
        {
          "internalType": "address",
          "name": "creator",
          "type": "address"
        }
      ],
      "stateMutability": "view",
      "type": "function"
    },
    {
      "inputs": [
        {
          "internalType": "uint256",
          "name": "tokenId",
          "type": "uint256"
        }
      ],
      "name": "getApproved",
      "outputs": [
        {
          "internalType": "address",
          "name": "",
          "type": "address"
        }
      ],
      "stateMutability": "view",
      "type": "function"
    },
    {
      "inputs": [],
      "name": "getEventCount",
      "outputs": [
        {
          "internalType": "uint256",
          "name": "",
          "type": "uint256"
        }
      ],
      "stateMutability": "view",
      "type": "function"
    },
    {
      "inputs": [
        {
          "internalType": "uint256",
          "name": "eventId",
          "type": "uint256"
        }
      ],
      "name": "getEventDetails",
      "outputs": [
        {
          "components": [
            {
              "internalType": "uint256",
              "name": "id",
              "type": "uint256"
            },
            {
              "internalType": "string",
              "name": "name",
              "type": "string"
            },
            {
              "internalType": "string",
              "name": "date",
              "type": "string"
            },
            {
              "internalType": "string",
              "name": "location",
              "type": "string"
            },
            {
              "internalType": "uint256",
              "name": "ticketPrice",
              "type": "uint256"
            },
            {
              "internalType": "uint256",
              "name": "ticketsAvailable",
              "type": "uint256"
            },
            {
              "internalType": "address",
              "name": "creator",
              "type": "address"
            }
          ],
          "internalType": "struct TicketNFT.Event",
          "name": "",
          "type": "tuple"
        }
      ],
      "stateMutability": "view",
      "type": "function"
    },
    {
      "inputs": [
        {
          "internalType": "uint256",
          "name": "ticketId",
          "type": "uint256"
        }
      ],
      "name": "getTicketEvent",
      "outputs": [
        {
          "internalType": "uint256",
          "name": "",
          "type": "uint256"
        }
      ],
      "stateMutability": "view",
      "type": "function"
    },
    {
      "inputs": [
        {
          "internalType": "address",
          "name": "owner",
          "type": "address"
        }
      ],
      "name": "getTicketsByOwner",
      "outputs": [
        {
          "internalType": "uint256[]",
          "name": "",
          "type": "uint256[]"
        }
      ],
      "stateMutability": "view",
      "type": "function"
    },
    {
      "inputs": [
        {
          "internalType": "address",
          "name": "owner",
          "type": "address"
        },
        {
          "internalType": "address",
          "name": "operator",
          "type": "address"
        }
      ],
      "name": "isApprovedForAll",
      "outputs": [
        {
          "internalType": "bool",
          "name": "",
          "type": "bool"
        }
      ],
      "stateMutability": "view",
      "type": "function"
    },
    {
      "inputs": [],
      "name": "name",
      "outputs": [
        {
          "internalType": "string",
          "name": "",
          "type": "string"
        }
      ],
      "stateMutability": "view",
      "type": "function"
    },
    {
      "inputs": [
        {
          "internalType": "uint256",
          "name": "tokenId",
          "type": "uint256"
        }
      ],
      "name": "ownerOf",
      "outputs": [
        {
          "internalType": "address",
          "name": "",
          "type": "address"
        }
      ],
      "stateMutability": "view",
      "type": "function"
    },
    {
      "inputs": [
        {
          "internalType": "uint256",
          "name": "eventId",
          "type": "uint256"
        }
      ],
      "name": "purchaseTicket",
      "outputs": [],
      "stateMutability": "payable",
      "type": "function"
    },
    {
      "inputs": [
        {
          "internalType": "address",
          "name": "from",
          "type": "address"
        },
        {
          "internalType": "address",
          "name": "to",
          "type": "address"
        },
        {
          "internalType": "uint256",
          "name": "tokenId",
          "type": "uint256"
        }
      ],
      "name": "safeTransferFrom",
      "outputs": [],
      "stateMutability": "nonpayable",
      "type": "function"
    },
    {
      "inputs": [
        {
          "internalType": "address",
          "name": "from",
          "type": "address"
        },
        {
          "internalType": "address",
          "name": "to",
          "type": "address"
        },
        {
          "internalType": "uint256",
          "name": "tokenId",
          "type": "uint256"
        },
        {
          "internalType": "bytes",
          "name": "data",
          "type": "bytes"
        }
      ],
      "name": "safeTransferFrom",
      "outputs": [],
      "stateMutability": "nonpayable",
      "type": "function"
    },
    {
      "inputs": [
        {
          "internalType": "address",
          "name": "operator",
          "type": "address"
        },
        {
          "internalType": "bool",
          "name": "approved",
          "type": "bool"
        }
      ],
      "name": "setApprovalForAll",
      "outputs": [],
      "stateMutability": "nonpayable",
      "type": "function"
    },
    {
      "inputs": [
        {
          "internalType": "bytes4",
          "name": "interfaceId",
          "type": "bytes4"
        }
      ],
      "name": "supportsInterface",
      "outputs": [
        {
          "internalType": "bool",
          "name": "",
          "type": "bool"
        }
      ],
      "stateMutability": "view",
      "type": "function"
    },
    {
      "inputs": [],
      "name": "symbol",
      "outputs": [
        {
          "internalType": "string",
          "name": "",
          "type": "string"
        }
      ],
      "stateMutability": "view",
      "type": "function"
    },
    {
      "inputs": [
        {
          "internalType": "uint256",
          "name": "",
          "type": "uint256"
        }
      ],
      "name": "ticketToEvent",
      "outputs": [
        {
          "internalType": "uint256",
          "name": "",
          "type": "uint256"
        }
      ],
      "stateMutability": "view",
      "type": "function"
    },
    {
      "inputs": [
        {
          "internalType": "uint256",
          "name": "tokenId",
          "type": "uint256"
        }
      ],
      "name": "tokenURI",
      "outputs": [
        {
          "internalType": "string",
          "name": "",
          "type": "string"
        }
      ],
      "stateMutability": "view",
      "type": "function"
    },
    {
      "inputs": [
        {
          "internalType": "address",
          "name": "from",
          "type": "address"
        },
        {
          "internalType": "address",
          "name": "to",
          "type": "address"
        },
        {
          "internalType": "uint256",
          "name": "tokenId",
          "type": "uint256"
        }
      ],
      "name": "transferFrom",
      "outputs": [],
      "stateMutability": "nonpayable",
      "type": "function"
    },
    {
      "inputs": [
        {
          "internalType": "address",
          "name": "owner",
          "type": "address"
        },
        {
          "internalType": "uint256",
          "name": "eventId",
          "type": "uint256"
        }
      ],
      "name": "verifyOwnership",
      "outputs": [
        {
          "internalType": "bool",
          "name": "",
          "type": "bool"
        }
      ],
      "stateMutability": "view",
      "type": "function"
    }
  ],
  "bytecode": "0x60806040523480156200001157600080fd5b506040518060400160405280600b81526020017f4576656e745469636b65740000000000000000000000000000000000000000008152506040518060400160405280600381526020017f45544b000000000000000000000000000000000000000000000000000000000081525081600090816200008f919062000324565b508060019081620000a1919062000324565b5050506200040b565b600081519050919050565b7f4e487b7100000000000000000000000000000000000000000000000000000000600052604160045260246000fd5b7f4e487b7100000000000000000000000000000000000000000000000000000000600052602260045260246000fd5b600060028204905060018216806200012c57607f821691505b602082108103620001425762000141620000e4565b5b50919050565b60008190508160005260206000209050919050565b60006020601f8301049050919050565b600082821b905092915050565b600060088302620001ac7fffffffffffffffffffffffffffffffffffffffffffffffffffffffffffffffff826200016d565b620001b886836200016d565b95508019841693508086168417925050509392505050565b6000819050919050565b6000819050919050565b600062000205620001ff620001f984620001d0565b620001da565b620001d0565b9050919050565b6000819050919050565b6200022183620001e4565b6200023962000230826200020c565b8484546200017a565b825550505050565b600090565b6200025062000241565b6200025d81848462000216565b505050565b5b8181101562000285576200027960008262000246565b60018101905062000263565b5050565b601f821115620002d4576200029e8162000148565b620002a9846200015d565b81016020851015620002b9578190505b620002d1620002c8856200015d565b83018262000262565b50505b505050565b600082821c905092915050565b6000620002f960001984600802620002d9565b1980831691505092915050565b6000620003148383620002e6565b9150826002028217905092915050565b6200032f82620000aa565b67ffffffffffffffff8111156200034b576200034a620000b5565b5b62000357825462000113565b6200036482828562000289565b600060209050601f8311600181146200039c576000841562000387578287015190505b62000393858262000306565b86555062000403565b601f198416620003ac8662000148565b60005b82811015620003d657848901518255600182019150602085019450602081019050620003af565b86831015620003f65784890151620003f2601f891682620002e6565b8355505b6001600288020188555050505b505050505050565b613adc806200041b6000396000f3fe6080604052600436106101355760003560e01c806395d89b41116100ab578063c87b56dd1161006f578063c87b56dd14610467578063d9e48f5c146104a4578063e985e9c5146104cf578063ec38d5a01461050c578063f5f00d8414610549578063f6ac04da1461057257610135565b806395d89b4114610391578063a22cb465146103bc578063a433cbbc146103e5578063b88d4fde14610422578063b948348c1461044b57610135565b806323b872dd116100fd57806323b872dd1461024b57806342842e0e146102745780635b14ed0b1461029d5780636352211e146102da57806367aa23e21461031757806370a082311461035457610135565b806301ffc9a71461013a57806306fdde0314610177578063081812fc146101a2578063095ea7b3146101df5780630b79143014610208575b600080fd5b34801561014657600080fd5b50610161600480360381019061015c9190612449565b6105af565b60405161016e9190612491565b60405180910390f35b34801561018357600080fd5b5061018c610691565b604051610199919061253c565b60405180910390f35b3480156101ae57600080fd5b506101c960048036038101906101c49190612594565b610723565b6040516101d69190612602565b60405180910390f35b3480156101eb57600080fd5b5061020660048036038101906102019190612649565b610769565b005b34801561021457600080fd5b5061022f600480360381019061022a9190612594565b610880565b6040516102429796959493929190612698565b60405180910390f35b34801561025757600080fd5b50610272600480360381019061026d919061271c565b610a7a565b005b34801561028057600080fd5b5061029b6004803603810190610296919061271c565b610ada565b005b3480156102a957600080fd5b506102c460048036038101906102bf9190612649565b610afa565b6040516102d19190612491565b60405180910390f35b3480156102e657600080fd5b5061030160048036038101906102fc9190612594565b610b73565b60405161030e9190612602565b60405180910390f35b34801561032357600080fd5b5061033e6004803603810190610339919061276f565b610bf9565b60405161034b919061285a565b60405180910390f35b34801561036057600080fd5b5061037b6004803603810190610376919061276f565b610cf6565b604051610388919061287c565b60405180910390f35b34801561039d57600080fd5b506103a6610dad565b6040516103b3919061253c565b60405180910390f35b3480156103c857600080fd5b506103e360048036038101906103de91906128c3565b610e3f565b005b3480156103f157600080fd5b5061040c60048036038101906104079190612594565b610e55565b604051610419919061287c565b60405180910390f35b34801561042e57600080fd5b5061044960048036038101906104449190612a38565b610e72565b005b61046560048036038101906104609190612594565b610ed4565b005b34801561047357600080fd5b5061048e60048036038101906104899190612594565b6110d5565b60405161049b919061253c565b60405180910390f35b3480156104b057600080fd5b506104b961113d565b6040516104c6919061287c565b60405180910390f35b3480156104db57600080fd5b506104f660048036038101906104f19190612abb565b61114e565b6040516105039190612491565b60405180910390f35b34801561051857600080fd5b50610533600480360381019061052e9190612594565b6111e2565b6040516105409190612bfe565b60405180910390f35b34801561055557600080fd5b50610570600480360381019061056b9190612cc1565b611439565b005b34801561057e57600080fd5b5061059960048036038101906105949190612594565b6115f9565b6040516105a6919061287c565b60405180910390f35b60007f80ac58cd000000000000000000000000000000000000000000000000000000007bffffffffffffffffffffffffffffffffffffffffffffffffffffffff1916827bffffffffffffffffffffffffffffffffffffffffffffffffffffffff1916148061067a57507f5b5e139f000000000000000000000000000000000000000000000000000000007bffffffffffffffffffffffffffffffffffffffffffffffffffffffff1916827bffffffffffffffffffffffffffffffffffffffffffffffffffffffff1916145b8061068a575061068982611611565b5b9050919050565b6060600080546106a090612dbf565b80601f01602080910402602001604051908101604052809291908181526020018280546106cc90612dbf565b80156107195780601f106106ee57610100808354040283529160200191610719565b820191906000526020600020905b8154815290600101906020018083116106fc57829003601f168201915b5050505050905090565b600061072e8261167b565b6004600083815260200190815260200160002060009054906101000a900473ffffffffffffffffffffffffffffffffffffffff169050919050565b600061077482610b73565b90508073ffffffffffffffffffffffffffffffffffffffff168373ffffffffffffffffffffffffffffffffffffffff16036107e4576040517f08c379a00000000000000000000000000000000000000000000000000000000081526004016107db90612e62565b60405180910390fd5b8073ffffffffffffffffffffffffffffffffffffffff166108036116c6565b73ffffffffffffffffffffffffffffffffffffffff16148061083257506108318161082c6116c6565b61114e565b5b610871576040517f08c379a000000000000000000000000000000000000000000000000000000000815260040161086890612ef4565b60405180910390fd5b61087b83836116ce565b505050565b60086020528060005260406000206000915090508060000154908060010180546108a990612dbf565b80601f01602080910402602001604051908101604052809291908181526020018280546108d590612dbf565b80156109225780601f106108f757610100808354040283529160200191610922565b820191906000526020600020905b81548152906001019060200180831161090557829003601f168201915b50505050509080600201805461093790612dbf565b80601f016020809104026020016040519081016040528092919081815260200182805461096390612dbf565b80156109b05780601f10610985576101008083540402835291602001916109b0565b820191906000526020600020905b81548152906001019060200180831161099357829003601f168201915b5050505050908060030180546109c590612dbf565b80601f01602080910402602001604051908101604052809291908181526020018280546109f190612dbf565b8015610a3e5780601f10610a1357610100808354040283529160200191610a3e565b820191906000526020600020905b815481529060010190602001808311610a2157829003601f168201915b5050505050908060040154908060050154908060060160009054906101000a900473ffffffffffffffffffffffffffffffffffffffff16905087565b610a8b610a856116c6565b82611787565b610aca576040517f08c379a0000000000000000000000000000000000000000000000000000000008152600401610ac190612f86565b60405180910390fd5b610ad583838361181c565b505050565b610af583838360405180602001604052806000815250610e72565b505050565b600080610b0684610bf9565b905060005b8151811015610b66578360096000848481518110610b2c57610b2b612fa6565b5b602002602001015181526020019081526020016000205403610b5357600192505050610b6d565b8080610b5e90613004565b915050610b0b565b5060009150505b92915050565b600080610b7f83611b15565b9050600073ffffffffffffffffffffffffffffffffffffffff168173ffffffffffffffffffffffffffffffffffffffff1603610bf0576040517f08c379a0000000000000000000000000000000000000000000000000000000008152600401610be790613098565b60405180910390fd5b80915050919050565b60606000610c0683610cf6565b905060008167ffffffffffffffff811115610c2457610c2361290d565b5b604051908082528060200260200182016040528015610c525781602001602082028036833780820191505090505b509050600080600190505b610c676006611b52565b8111610cea578573ffffffffffffffffffffffffffffffffffffffff16610c8d82610b73565b73ffffffffffffffffffffffffffffffffffffffff1603610cd75780838381518110610cbc57610cbb612fa6565b5b6020026020010181815250508180610cd390613004565b9250505b8080610ce290613004565b915050610c5d565b50819350505050919050565b60008073ffffffffffffffffffffffffffffffffffffffff168273ffffffffffffffffffffffffffffffffffffffff1603610d66576040517f08c379a0000000000000000000000000000000000000000000000000000000008152600401610d5d9061312a565b60405180910390fd5b600360008373ffffffffffffffffffffffffffffffffffffffff1673ffffffffffffffffffffffffffffffffffffffff168152602001908152602001600020549050919050565b606060018054610dbc90612dbf565b80601f0160208091040260200160405190810160405280929190818152602001828054610de890612dbf565b8015610e355780601f10610e0a57610100808354040283529160200191610e35565b820191906000526020600020905b815481529060010190602001808311610e1857829003601f168201915b5050505050905090565b610e51610e4a6116c6565b8383611b60565b5050565b600060096000838152602001908152602001600020549050919050565b610e83610e7d6116c6565b83611787565b610ec2576040517f08c379a0000000000000000000000000000000000000000000000000000000008152600401610eb990612f86565b60405180910390fd5b610ece84848484611ccc565b50505050565b60006008600083815260200190815260200160002090506000816000015403610f32576040517f08c379a0000000000000000000000000000000000000000000000000000000008152600401610f2990613196565b60405180910390fd5b8060040154341015610f79576040517f08c379a0000000000000000000000000000000000000000000000000000000008152600401610f7090613202565b60405180910390fd5b6000816005015411610fc0576040517f08c379a0000000000000000000000000000000000000000000000000000000008152600401610fb79061326e565b60405180910390fd5b6001816005016000828254610fd5919061328e565b92505081905550610fe66006611d28565b6000610ff26006611b52565b9050610ffe3382611d3e565b8260096000838152602001908152602001600020819055508160060160009054906101000a900473ffffffffffffffffffffffffffffffffffffffff1673ffffffffffffffffffffffffffffffffffffffff166108fc349081150290604051600060405180830381858888f19350505050158015611080573d6000803e3d6000fd5b503373ffffffffffffffffffffffffffffffffffffffff16817f94c5953e15f54d38b82a662bdd5739fc91af3a23d3ef7e67269dfaeee71a813c856040516110c8919061287c565b60405180910390a3505050565b60606110e08261167b565b60006110ea611f5b565b9050600081511161110a5760405180602001604052806000815250611135565b8061111484611f72565b6040516020016111259291906132fe565b6040516020818303038152906040525b915050919050565b60006111496007611b52565b905090565b6000600560008473ffffffffffffffffffffffffffffffffffffffff1673ffffffffffffffffffffffffffffffffffffffff16815260200190815260200160002060008373ffffffffffffffffffffffffffffffffffffffff1673ffffffffffffffffffffffffffffffffffffffff16815260200190815260200160002060009054906101000a900460ff16905092915050565b6111ea61238a565b600860008381526020019081526020016000206040518060e00160405290816000820154815260200160018201805461122290612dbf565b80601f016020809104026020016040519081016040528092919081815260200182805461124e90612dbf565b801561129b5780601f106112705761010080835404028352916020019161129b565b820191906000526020600020905b81548152906001019060200180831161127e57829003601f168201915b505050505081526020016002820180546112b490612dbf565b80601f01602080910402602001604051908101604052809291908181526020018280546112e090612dbf565b801561132d5780601f106113025761010080835404028352916020019161132d565b820191906000526020600020905b81548152906001019060200180831161131057829003601f168201915b5050505050815260200160038201805461134690612dbf565b80601f016020809104026020016040519081016040528092919081815260200182805461137290612dbf565b80156113bf5780601f10611394576101008083540402835291602001916113bf565b820191906000526020600020905b8154815290600101906020018083116113a257829003601f168201915b5050505050815260200160048201548152602001600582015481526020016006820160009054906101000a900473ffffffffffffffffffffffffffffffffffffffff1673ffffffffffffffffffffffffffffffffffffffff1673ffffffffffffffffffffffffffffffffffffffff16815250509050919050565b6000811161147c576040517f08c379a000000000000000000000000000000000000000000000000000000000815260040161147390613394565b60405180910390fd5b6114866007611d28565b60006114926007611b52565b90506040518060e001604052808281526020018781526020018681526020018581526020018481526020018381526020013373ffffffffffffffffffffffffffffffffffffffff168152506008600083815260200190815260200160002060008201518160000155602082015181600101908161150f9190613560565b5060408201518160020190816115259190613560565b50606082015181600301908161153b9190613560565b506080820151816004015560a0820151816005015560c08201518160060160006101000a81548173ffffffffffffffffffffffffffffffffffffffff021916908373ffffffffffffffffffffffffffffffffffffffff1602179055509050503373ffffffffffffffffffffffffffffffffffffffff16817fa3ba334a8c24d93c7fb99b8ad309aef7002fbbb5afbe659ee874c18c9b052e1488888888886040516115e9959493929190613632565b60405180910390a3505050505050565b60096020528060005260406000206000915090505481565b60007f01ffc9a7000000000000000000000000000000000000000000000000000000007bffffffffffffffffffffffffffffffffffffffffffffffffffffffff1916827bffffffffffffffffffffffffffffffffffffffffffffffffffffffff1916149050919050565b61168481612040565b6116c3576040517f08c379a00000000000000000000000000000000000000000000000000000000081526004016116ba90613098565b60405180910390fd5b50565b600033905090565b816004600083815260200190815260200160002060006101000a81548173ffffffffffffffffffffffffffffffffffffffff021916908373ffffffffffffffffffffffffffffffffffffffff160217905550808273ffffffffffffffffffffffffffffffffffffffff1661174183610b73565b73ffffffffffffffffffffffffffffffffffffffff167f8c5be1e5ebec7d5bd14f71427d1e84f3dd0314c0f7b2291e5b200ac8c7c3b92560405160405180910390a45050565b60008061179383610b73565b90508073ffffffffffffffffffffffffffffffffffffffff168473ffffffffffffffffffffffffffffffffffffffff1614806117d557506117d4818561114e565b5b8061181357508373ffffffffffffffffffffffffffffffffffffffff166117fb84610723565b73ffffffffffffffffffffffffffffffffffffffff16145b91505092915050565b8273ffffffffffffffffffffffffffffffffffffffff1661183c82610b73565b73ffffffffffffffffffffffffffffffffffffffff1614611892576040517f08c379a00000000000000000000000000000000000000000000000000000000081526004016118899061370c565b60405180910390fd5b600073ffffffffffffffffffffffffffffffffffffffff168273ffffffffffffffffffffffffffffffffffffffff1603611901576040517f08c379a00000000000000000000000000000000000000000000000000000000081526004016118f89061379e565b60405180910390fd5b61190e8383836001612081565b8273ffffffffffffffffffffffffffffffffffffffff1661192e82610b73565b73ffffffffffffffffffffffffffffffffffffffff1614611984576040517f08c379a000000000000000000000000000000000000000000000000000000000815260040161197b9061370c565b60405180910390fd5b6004600082815260200190815260200160002060006101000a81549073ffffffffffffffffffffffffffffffffffffffff02191690556001600360008573ffffffffffffffffffffffffffffffffffffffff1673ffffffffffffffffffffffffffffffffffffffff168152602001908152602001600020600082825403925050819055506001600360008473ffffffffffffffffffffffffffffffffffffffff1673ffffffffffffffffffffffffffffffffffffffff16815260200190815260200160002060008282540192505081905550816002600083815260200190815260200160002060006101000a81548173ffffffffffffffffffffffffffffffffffffffff021916908373ffffffffffffffffffffffffffffffffffffffff160217905550808273ffffffffffffffffffffffffffffffffffffffff168473ffffffffffffffffffffffffffffffffffffffff167fddf252ad1be2c89b69c2b068fc378daa952ba7f163c4a11628f55a4df523b3ef60405160405180910390a4611b108383836001612087565b505050565b60006002600083815260200190815260200160002060009054906101000a900473ffffffffffffffffffffffffffffffffffffffff169050919050565b600081600001549050919050565b8173ffffffffffffffffffffffffffffffffffffffff168373ffffffffffffffffffffffffffffffffffffffff1603611bce576040517f08c379a0000000000000000000000000000000000000000000000000000000008152600401611bc59061380a565b60405180910390fd5b80600560008573ffffffffffffffffffffffffffffffffffffffff1673ffffffffffffffffffffffffffffffffffffffff16815260200190815260200160002060008473ffffffffffffffffffffffffffffffffffffffff1673ffffffffffffffffffffffffffffffffffffffff16815260200190815260200160002060006101000a81548160ff0219169083151502179055508173ffffffffffffffffffffffffffffffffffffffff168373ffffffffffffffffffffffffffffffffffffffff167f17307eab39ab6107e8899845ad3d59bd9653f200f220920489ca2b5937696c3183604051611cbf9190612491565b60405180910390a3505050565b611cd784848461181c565b611ce38484848461208d565b611d22576040517f08c379a0000000000000000000000000000000000000000000000000000000008152600401611d199061389c565b60405180910390fd5b50505050565b6001816000016000828254019250508190555050565b600073ffffffffffffffffffffffffffffffffffffffff168273ffffffffffffffffffffffffffffffffffffffff1603611dad576040517f08c379a0000000000000000000000000000000000000000000000000000000008152600401611da490613908565b60405180910390fd5b611db681612040565b15611df6576040517f08c379a0000000000000000000000000000000000000000000000000000000008152600401611ded90613974565b60405180910390fd5b611e04600083836001612081565b611e0d81612040565b15611e4d576040517f08c379a0000000000000000000000000000000000000000000000000000000008152600401611e4490613974565b60405180910390fd5b6001600360008473ffffffffffffffffffffffffffffffffffffffff1673ffffffffffffffffffffffffffffffffffffffff16815260200190815260200160002060008282540192505081905550816002600083815260200190815260200160002060006101000a81548173ffffffffffffffffffffffffffffffffffffffff021916908373ffffffffffffffffffffffffffffffffffffffff160217905550808273ffffffffffffffffffffffffffffffffffffffff16600073ffffffffffffffffffffffffffffffffffffffff167fddf252ad1be2c89b69c2b068fc378daa952ba7f163c4a11628f55a4df523b3ef60405160405180910390a4611f57600083836001612087565b5050565b606060405180602001604052806000815250905090565b606060006001611f8184612214565b01905060008167ffffffffffffffff811115611fa057611f9f61290d565b5b6040519080825280601f01601f191660200182016040528015611fd25781602001600182028036833780820191505090505b509050600082602001820190505b600115612035578080600190039150507f3031323334353637383961626364656600000000000000000000000000000000600a86061a8153600a858161202957612028613994565b5b04945060008503611fe0575b819350505050919050565b60008073ffffffffffffffffffffffffffffffffffffffff1661206283611b15565b73ffffffffffffffffffffffffffffffffffffffff1614159050919050565b50505050565b50505050565b60006120ae8473ffffffffffffffffffffffffffffffffffffffff16612367565b15612207578373ffffffffffffffffffffffffffffffffffffffff1663150b7a026120d76116c6565b8786866040518563ffffffff1660e01b81526004016120f99493929190613a18565b6020604051808303816000875af192505050801561213557506040513d601f19601f820116820180604052508101906121329190613a79565b60015b6121b7573d8060008114612165576040519150601f19603f3d011682016040523d82523d6000602084013e61216a565b606091505b5060008151036121af576040517f08c379a00000000000000000000000000000000000000000000000000000000081526004016121a69061389c565b60405180910390fd5b805181602001fd5b63150b7a0260e01b7bffffffffffffffffffffffffffffffffffffffffffffffffffffffff1916817bffffffffffffffffffffffffffffffffffffffffffffffffffffffff19161491505061220c565b600190505b949350505050565b600080600090507a184f03e93ff9f4daa797ed6e38ed64bf6a1f0100000000000000008310612272577a184f03e93ff9f4daa797ed6e38ed64bf6a1f010000000000000000838161226857612267613994565b5b0492506040810190505b6d04ee2d6d415b85acef810000000083106122af576d04ee2d6d415b85acef810000000083816122a5576122a4613994565b5b0492506020810190505b662386f26fc1000083106122de57662386f26fc1000083816122d4576122d3613994565b5b0492506010810190505b6305f5e1008310612307576305f5e10083816122fd576122fc613994565b5b0492506008810190505b612710831061232c57612710838161232257612321613994565b5b0492506004810190505b6064831061234f576064838161234557612344613994565b5b0492506002810190505b600a831061235e576001810190505b80915050919050565b6000808273ffffffffffffffffffffffffffffffffffffffff163b119050919050565b6040518060e00160405280600081526020016060815260200160608152602001606081526020016000815260200160008152602001600073ffffffffffffffffffffffffffffffffffffffff1681525090565b6000604051905090565b600080fd5b600080fd5b60007fffffffff0000000000000000000000000000000000000000000000000000000082169050919050565b612426816123f1565b811461243157600080fd5b50565b6000813590506124438161241d565b92915050565b60006020828403121561245f5761245e6123e7565b5b600061246d84828501612434565b91505092915050565b60008115159050919050565b61248b81612476565b82525050565b60006020820190506124a66000830184612482565b92915050565b600081519050919050565b600082825260208201905092915050565b60005b838110156124e65780820151818401526020810190506124cb565b60008484015250505050565b6000601f19601f8301169050919050565b600061250e826124ac565b61251881856124b7565b93506125288185602086016124c8565b612531816124f2565b840191505092915050565b600060208201905081810360008301526125568184612503565b905092915050565b6000819050919050565b6125718161255e565b811461257c57600080fd5b50565b60008135905061258e81612568565b92915050565b6000602082840312156125aa576125a96123e7565b5b60006125b88482850161257f565b91505092915050565b600073ffffffffffffffffffffffffffffffffffffffff82169050919050565b60006125ec826125c1565b9050919050565b6125fc816125e1565b82525050565b600060208201905061261760008301846125f3565b92915050565b612626816125e1565b811461263157600080fd5b50565b6000813590506126438161261d565b92915050565b600080604083850312156126605761265f6123e7565b5b600061266e85828601612634565b925050602061267f8582860161257f565b9150509250929050565b6126928161255e565b82525050565b600060e0820190506126ad600083018a612689565b81810360208301526126bf8189612503565b905081810360408301526126d38188612503565b905081810360608301526126e78187612503565b90506126f66080830186612689565b61270360a0830185612689565b61271060c08301846125f3565b98975050505050505050565b600080600060608486031215612735576127346123e7565b5b600061274386828701612634565b935050602061275486828701612634565b92505060406127658682870161257f565b9150509250925092565b600060208284031215612785576127846123e7565b5b600061279384828501612634565b91505092915050565b600081519050919050565b600082825260208201905092915050565b6000819050602082019050919050565b6127d18161255e565b82525050565b60006127e383836127c8565b60208301905092915050565b6000602082019050919050565b60006128078261279c565b61281181856127a7565b935061281c836127b8565b8060005b8381101561284d57815161283488826127d7565b975061283f836127ef565b925050600181019050612820565b5085935050505092915050565b6000602082019050818103600083015261287481846127fc565b905092915050565b60006020820190506128916000830184612689565b92915050565b6128a081612476565b81146128ab57600080fd5b50565b6000813590506128bd81612897565b92915050565b600080604083850312156128da576128d96123e7565b5b60006128e885828601612634565b92505060206128f9858286016128ae565b9150509250929050565b600080fd5b600080fd5b7f4e487b7100000000000000000000000000000000000000000000000000000000600052604160045260246000fd5b612945826124f2565b810181811067ffffffffffffffff821117156129645761296361290d565b5b80604052505050565b60006129776123dd565b9050612983828261293c565b919050565b600067ffffffffffffffff8211156129a3576129a261290d565b5b6129ac826124f2565b9050602081019050919050565b82818337600083830152505050565b60006129db6129d684612988565b61296d565b9050828152602081018484840111156129f7576129f6612908565b5b612a028482856129b9565b509392505050565b600082601f830112612a1f57612a1e612903565b5b8135612a2f8482602086016129c8565b91505092915050565b60008060008060808587031215612a5257612a516123e7565b5b6000612a6087828801612634565b9450506020612a7187828801612634565b9350506040612a828782880161257f565b925050606085013567ffffffffffffffff811115612aa357612aa26123ec565b5b612aaf87828801612a0a565b91505092959194509250565b60008060408385031215612ad257612ad16123e7565b5b6000612ae085828601612634565b9250506020612af185828601612634565b9150509250929050565b600082825260208201905092915050565b6000612b17826124ac565b612b218185612afb565b9350612b318185602086016124c8565b612b3a816124f2565b840191505092915050565b612b4e816125e1565b82525050565b600060e083016000830151612b6c60008601826127c8565b5060208301518482036020860152612b848282612b0c565b91505060408301518482036040860152612b9e8282612b0c565b91505060608301518482036060860152612bb88282612b0c565b9150506080830151612bcd60808601826127c8565b5060a0830151612be060a08601826127c8565b5060c0830151612bf360c0860182612b45565b508091505092915050565b60006020820190508181036000830152612c188184612b54565b905092915050565b600067ffffffffffffffff821115612c3b57612c3a61290d565b5b612c44826124f2565b9050602081019050919050565b6000612c64612c5f84612c20565b61296d565b905082815260208101848484011115612c8057612c7f612908565b5b612c8b8482856129b9565b509392505050565b600082601f830112612ca857612ca7612903565b5b8135612cb8848260208601612c51565b91505092915050565b600080600080600060a08688031215612cdd57612cdc6123e7565b5b600086013567ffffffffffffffff811115612cfb57612cfa6123ec565b5b612d0788828901612c93565b955050602086013567ffffffffffffffff811115612d2857612d276123ec565b5b612d3488828901612c93565b945050604086013567ffffffffffffffff811115612d5557612d546123ec565b5b612d6188828901612c93565b9350506060612d728882890161257f565b9250506080612d838882890161257f565b9150509295509295909350565b7f4e487b7100000000000000000000000000000000000000000000000000000000600052602260045260246000fd5b60006002820490506001821680612dd757607f821691505b602082108103612dea57612de9612d90565b5b50919050565b7f4552433732313a20617070726f76616c20746f2063757272656e74206f776e6560008201527f7200000000000000000000000000000000000000000000000000000000000000602082015250565b6000612e4c6021836124b7565b9150612e5782612df0565b604082019050919050565b60006020820190508181036000830152612e7b81612e3f565b9050919050565b7f4552433732313a20617070726f76652063616c6c6572206973206e6f7420746f60008201527f6b656e206f776e6572206f7220617070726f76656420666f7220616c6c000000602082015250565b6000612ede603d836124b7565b9150612ee982612e82565b604082019050919050565b60006020820190508181036000830152612f0d81612ed1565b9050919050565b7f4552433732313a2063616c6c6572206973206e6f7420746f6b656e206f776e6560008201527f72206f7220617070726f76656400000000000000000000000000000000000000602082015250565b6000612f70602d836124b7565b9150612f7b82612f14565b604082019050919050565b60006020820190508181036000830152612f9f81612f63565b9050919050565b7f4e487b7100000000000000000000000000000000000000000000000000000000600052603260045260246000fd5b7f4e487b7100000000000000000000000000000000000000000000000000000000600052601160045260246000fd5b600061300f8261255e565b91507fffffffffffffffffffffffffffffffffffffffffffffffffffffffffffffffff820361304157613040612fd5565b5b600182019050919050565b7f4552433732313a20696e76616c696420746f6b656e2049440000000000000000600082015250565b60006130826018836124b7565b915061308d8261304c565b602082019050919050565b600060208201905081810360008301526130b181613075565b9050919050565b7f4552433732313a2061646472657373207a65726f206973206e6f74206120766160008201527f6c6964206f776e65720000000000000000000000000000000000000000000000602082015250565b60006131146029836124b7565b915061311f826130b8565b604082019050919050565b6000602082019050818103600083015261314381613107565b9050919050565b7f4576656e7420646f6573206e6f74206578697374000000000000000000000000600082015250565b60006131806014836124b7565b915061318b8261314a565b602082019050919050565b600060208201905081810360008301526131af81613173565b9050919050565b7f496e73756666696369656e74207061796d656e74000000000000000000000000600082015250565b60006131ec6014836124b7565b91506131f7826131b6565b602082019050919050565b6000602082019050818103600083015261321b816131df565b9050919050565b7f4e6f207469636b65747320617661696c61626c65000000000000000000000000600082015250565b60006132586014836124b7565b915061326382613222565b602082019050919050565b600060208201905081810360008301526132878161324b565b9050919050565b60006132998261255e565b91506132a48361255e565b92508282039050818111156132bc576132bb612fd5565b5b92915050565b600081905092915050565b60006132d8826124ac565b6132e281856132c2565b93506132f28185602086016124c8565b80840191505092915050565b600061330a82856132cd565b915061331682846132cd565b91508190509392505050565b7f5469636b65747320617661696c61626c652073686f756c64206265206772656160008201527f746572207468616e203000000000000000000000000000000000000000000000602082015250565b600061337e602a836124b7565b915061338982613322565b604082019050919050565b600060208201905081810360008301526133ad81613371565b9050919050565b60008190508160005260206000209050919050565b60006020601f8301049050919050565b600082821b905092915050565b6000600883026134167fffffffffffffffffffffffffffffffffffffffffffffffffffffffffffffffff826133d9565b61342086836133d9565b95508019841693508086168417925050509392505050565b6000819050919050565b600061345d6134586134538461255e565b613438565b61255e565b9050919050565b6000819050919050565b61347783613442565b61348b61348382613464565b8484546133e6565b825550505050565b600090565b6134a0613493565b6134ab81848461346e565b505050565b5b818110156134cf576134c4600082613498565b6001810190506134b1565b5050565b601f821115613514576134e5816133b4565b6134ee846133c9565b810160208510156134fd578190505b613511613509856133c9565b8301826134b0565b50505b505050565b600082821c905092915050565b600061353760001984600802613519565b1980831691505092915050565b60006135508383613526565b9150826002028217905092915050565b613569826124ac565b67ffffffffffffffff8111156135825761358161290d565b5b61358c8254612dbf565b6135978282856134d3565b600060209050601f8311600181146135ca57600084156135b8578287015190505b6135c28582613544565b86555061362a565b601f1984166135d8866133b4565b60005b82811015613600578489015182556001820191506020850194506020810190506135db565b8683101561361d5784890151613619601f891682613526565b8355505b6001600288020188555050505b505050505050565b600060a082019050818103600083015261364c8188612503565b905081810360208301526136608187612503565b905081810360408301526136748186612503565b90506136836060830185612689565b6136906080830184612689565b9695505050505050565b7f4552433732313a207472616e736665722066726f6d20696e636f72726563742060008201527f6f776e6572000000000000000000000000000000000000000000000000000000602082015250565b60006136f66025836124b7565b91506137018261369a565b604082019050919050565b60006020820190508181036000830152613725816136e9565b9050919050565b7f4552433732313a207472616e7366657220746f20746865207a65726f2061646460008201527f7265737300000000000000000000000000000000000000000000000000000000602082015250565b60006137886024836124b7565b91506137938261372c565b604082019050919050565b600060208201905081810360008301526137b78161377b565b9050919050565b7f4552433732313a20617070726f766520746f2063616c6c657200000000000000600082015250565b60006137f46019836124b7565b91506137ff826137be565b602082019050919050565b60006020820190508181036000830152613823816137e7565b9050919050565b7f4552433732313a207472616e7366657220746f206e6f6e20455243373231526560008201527f63656976657220696d706c656d656e7465720000000000000000000000000000602082015250565b60006138866032836124b7565b91506138918261382a565b604082019050919050565b600060208201905081810360008301526138b581613879565b9050919050565b7f4552433732313a206d696e7420746f20746865207a65726f2061646472657373600082015250565b60006138f26020836124b7565b91506138fd826138bc565b602082019050919050565b60006020820190508181036000830152613921816138e5565b9050919050565b7f4552433732313a20746f6b656e20616c7265616479206d696e74656400000000600082015250565b600061395e601c836124b7565b915061396982613928565b602082019050919050565b6000602082019050818103600083015261398d81613951565b9050919050565b7f4e487b7100000000000000000000000000000000000000000000000000000000600052601260045260246000fd5b600081519050919050565b600082825260208201905092915050565b60006139ea826139c3565b6139f481856139ce565b9350613a048185602086016124c8565b613a0d816124f2565b840191505092915050565b6000608082019050613a2d60008301876125f3565b613a3a60208301866125f3565b613a476040830185612689565b8181036060830152613a5981846139df565b905095945050505050565b600081519050613a738161241d565b92915050565b600060208284031215613a8f57613a8e6123e7565b5b6000613a9d84828501613a64565b9150509291505056fea2646970667358221220fefba0b28f9f03dcc4f61024b70d0aadb8c696535ab3dc39149a9af7215de4e164736f6c63430008110033",
  "linkReferences": {},
  "deployedLinkReferences": {}
}